{
  "contractName": "TravelInsurance",
  "abi": [
    {
      "constant": true,
      "inputs": [],
      "name": "premiumAmount",
      "outputs": [
        {
          "name": "",
          "type": "uint256"
        }
      ],
      "payable": false,
      "stateMutability": "view",
      "type": "function"
    },
    {
      "constant": true,
      "inputs": [],
      "name": "maxPayout",
      "outputs": [
        {
          "name": "",
          "type": "uint256"
        }
      ],
      "payable": false,
      "stateMutability": "view",
      "type": "function"
    },
    {
      "constant": true,
      "inputs": [],
      "name": "insured",
      "outputs": [
        {
          "name": "",
          "type": "address"
        }
      ],
      "payable": false,
      "stateMutability": "view",
      "type": "function"
    },
    {
      "constant": true,
      "inputs": [],
      "name": "insurancePolicy",
      "outputs": [
        {
          "name": "erVisitCoverage",
          "type": "bool"
        },
        {
          "name": "prescriptionCoverage",
          "type": "bool"
        },
        {
          "name": "surgeryCoverage",
          "type": "bool"
        }
      ],
      "payable": false,
      "stateMutability": "view",
      "type": "function"
    },
    {
      "inputs": [
        {
          "name": "_trustedProviderContract",
          "type": "address"
        }
      ],
      "payable": false,
      "stateMutability": "nonpayable",
      "type": "constructor"
    },
    {
      "anonymous": false,
      "inputs": [
        {
          "indexed": true,
          "name": "_insured",
          "type": "address"
        },
        {
          "components": [
            {
              "name": "erVisitCoverage",
              "type": "bool"
            },
            {
              "name": "prescriptionCoverage",
              "type": "bool"
            },
            {
              "name": "surgeryCoverage",
              "type": "bool"
            }
          ],
          "indexed": true,
          "name": "_proposedPolicy",
          "type": "tuple"
        },
        {
          "indexed": false,
          "name": "_premiumValue",
          "type": "uint256"
        }
      ],
      "name": "contractProposed",
      "type": "event"
    },
    {
      "anonymous": false,
      "inputs": [
        {
          "indexed": true,
          "name": "_insurer",
          "type": "address"
        },
        {
          "components": [
            {
              "name": "erVisitCoverage",
              "type": "bool"
            },
            {
              "name": "prescriptionCoverage",
              "type": "bool"
            },
            {
              "name": "surgeryCoverage",
              "type": "bool"
            }
          ],
          "indexed": true,
          "name": "_validatedPolicy",
          "type": "tuple"
        },
        {
          "indexed": false,
          "name": "_coverageValue",
          "type": "uint256"
        }
      ],
      "name": "contractValidated",
      "type": "event"
    },
    {
      "anonymous": false,
      "inputs": [
        {
          "indexed": true,
          "name": "_provider",
          "type": "address"
        },
        {
          "components": [
            {
              "name": "erVisitCoverage",
              "type": "bool"
            },
            {
              "name": "prescriptionCoverage",
              "type": "bool"
            },
            {
              "name": "surgeryCoverage",
              "type": "bool"
            }
          ],
          "indexed": true,
          "name": "_validatedPolicy",
          "type": "tuple"
        },
        {
          "indexed": false,
          "name": "_amountDisbursed",
          "type": "uint256"
        }
      ],
      "name": "claimProcessed",
      "type": "event"
    },
    {
      "constant": false,
      "inputs": [
        {
          "name": "_startDateTime",
          "type": "uint256"
        },
        {
          "name": "_endDateTime",
          "type": "uint256"
        },
        {
          "name": "_erVisitCoverage",
          "type": "bool"
        },
        {
          "name": "_prescriptionCoverage",
          "type": "bool"
        },
        {
          "name": "_surgeryCoverage",
          "type": "bool"
        }
      ],
      "name": "selectNewPolicy",
      "outputs": [],
      "payable": true,
      "stateMutability": "payable",
      "type": "function"
    },
    {
      "constant": false,
      "inputs": [
        {
          "name": "_bloodType",
          "type": "string"
        },
        {
          "name": "_allergies",
          "type": "string"
        },
        {
          "name": "_conditions",
          "type": "string"
        },
        {
          "name": "_emergencyPhNum",
          "type": "uint256"
        },
        {
          "name": "_homeCountry",
          "type": "string"
        }
      ],
      "name": "provideEmergencyInfo",
      "outputs": [],
      "payable": false,
      "stateMutability": "nonpayable",
      "type": "function"
    },
    {
      "constant": false,
      "inputs": [],
      "name": "validate",
      "outputs": [],
      "payable": true,
      "stateMutability": "payable",
      "type": "function"
    },
    {
      "constant": false,
      "inputs": [
        {
          "name": "_claimAmount",
          "type": "uint256"
        },
        {
          "name": "_providerAddress",
          "type": "address"
        }
      ],
      "name": "claimFunds",
      "outputs": [],
      "payable": true,
      "stateMutability": "payable",
      "type": "function"
    }
  ],
  "bytecode": "0x608060405234801561001057600080fd5b50604051602080610d408339810180604052810190808051906020019092919050505033600b60006101000a81548173ffffffffffffffffffffffffffffffffffffffff021916908373ffffffffffffffffffffffffffffffffffffffff16021790555080600c60006101000a81548173ffffffffffffffffffffffffffffffffffffffff021916908373ffffffffffffffffffffffffffffffffffffffff16021790555060606040519081016040528060001515815260200160001515815260200160001515815250600760008201518160000160006101000a81548160ff02191690831515021790555060208201518160000160016101000a81548160ff02191690831515021790555060408201518160000160026101000a81548160ff02191690831515021790555090505050610bf18061014f6000396000f30060806040526004361061008e576000357c0100000000000000000000000000000000000000000000000000000000900463ffffffff168063051d887714610093578063390d6855146101d857806344530f3a146102185780636901f66814610243578063b5eede231461024d578063e0176de81461029b578063eebb1363146102c6578063f29433991461031d575b600080fd5b34801561009f57600080fd5b506101d6600480360381019080803590602001908201803590602001908080601f0160208091040260200160405190810160405280939291908181526020018383808284378201915050505050509192919290803590602001908201803590602001908080601f0160208091040260200160405190810160405280939291908181526020018383808284378201915050505050509192919290803590602001908201803590602001908080601f016020809104026020016040519081016040528093929190818152602001838380828437820191505050505050919291929080359060200190929190803590602001908201803590602001908080601f0160208091040260200160405190810160405280939291908181526020018383808284378201915050505050509192919290505050610362565b005b61021660048036038101908080359060200190929190803573ffffffffffffffffffffffffffffffffffffffff169060200190929190505050610435565b005b34801561022457600080fd5b5061022d6105ae565b6040518082815260200191505060405180910390f35b61024b6105b4565b005b61029960048036038101908080359060200190929190803590602001909291908035151590602001909291908035151590602001909291908035151590602001909291905050506107a0565b005b3480156102a757600080fd5b506102b06109db565b6040518082815260200191505060405180910390f35b3480156102d257600080fd5b506102db6109e1565b604051808273ffffffffffffffffffffffffffffffffffffffff1673ffffffffffffffffffffffffffffffffffffffff16815260200191505060405180910390f35b34801561032957600080fd5b50610332610a06565b60405180841515151581526020018315151515815260200182151515158152602001935050505060405180910390f35b6000809054906101000a900473ffffffffffffffffffffffffffffffffffffffff1673ffffffffffffffffffffffffffffffffffffffff163373ffffffffffffffffffffffffffffffffffffffff161415156103bd57600080fd5b84600160000190805190602001906103d6929190610b20565b50836001800190805190602001906103ef929190610b20565b508260016002019080519060200190610409929190610b20565b5081600160030181905550806001600401908051906020019061042d929190610b20565b505050505050565b600c60009054906101000a900473ffffffffffffffffffffffffffffffffffffffff1673ffffffffffffffffffffffffffffffffffffffff163373ffffffffffffffffffffffffffffffffffffffff1614151561049157600080fd5b6008548210156105aa5760095442101580156104af5750600a544211155b156105a9578073ffffffffffffffffffffffffffffffffffffffff166108fc839081150290604051600060405180830381858888f193505050501580156104fa573d6000803e3d6000fd5b506007606060405190810160405290816000820160009054906101000a900460ff161515151581526020016000820160019054906101000a900460ff161515151581526020016000820160029054906101000a900460ff1615151515815250508173ffffffffffffffffffffffffffffffffffffffff167f4023a725b2d30ef92235abbbd3abb8ec812ca4da38f45067fcc14cc4918f0a03846040518082815260200191505060405180910390a35b5b5050565b60065481565b600b60009054906101000a900473ffffffffffffffffffffffffffffffffffffffff1673ffffffffffffffffffffffffffffffffffffffff163373ffffffffffffffffffffffffffffffffffffffff1614151561061057600080fd5b6106776007606060405190810160405290816000820160009054906101000a900460ff161515151581526020016000820160019054906101000a900460ff161515151581526020016000820160029054906101000a900460ff161515151581525050610a45565b3414151561068457600080fd5b6007606060405190810160405290816000820160009054906101000a900460ff161515151581526020016000820160019054906101000a900460ff161515151581526020016000820160029054906101000a900460ff1615151515815250503373ffffffffffffffffffffffffffffffffffffffff167fa8a67e93c205a242d80e312c2a188815bef1cbbec6d169335d9b9a99fb444354346040518082815260200191505060405180910390a36107986007606060405190810160405290816000820160009054906101000a900460ff161515151581526020016000820160019054906101000a900460ff161515151581526020016000820160029054906101000a900460ff161515151581525050610a45565b600881905550565b336000806101000a81548173ffffffffffffffffffffffffffffffffffffffff021916908373ffffffffffffffffffffffffffffffffffffffff1602179055508460098190555083600a8190555082600760000160006101000a81548160ff02191690831515021790555081600760000160016101000a81548160ff02191690831515021790555080600760000160026101000a81548160ff0219169083151502179055506108ac6007606060405190810160405290816000820160009054906101000a900460ff161515151581526020016000820160019054906101000a900460ff161515151581526020016000820160029054906101000a900460ff161515151581525050610aa0565b6006819055506109196007606060405190810160405290816000820160009054906101000a900460ff161515151581526020016000820160019054906101000a900460ff161515151581526020016000820160029054906101000a900460ff161515151581525050610aa0565b341015151561092757600080fd5b6007606060405190810160405290816000820160009054906101000a900460ff161515151581526020016000820160019054906101000a900460ff161515151581526020016000820160029054906101000a900460ff1615151515815250503373ffffffffffffffffffffffffffffffffffffffff167fae4cfd364d8c7eb8494859124cd7f00cefeee98bf8274d3e13cc0edc64cf8b22346040518082815260200191505060405180910390a35050505050565b60085481565b6000809054906101000a900473ffffffffffffffffffffffffffffffffffffffff1681565b60078060000160009054906101000a900460ff16908060000160019054906101000a900460ff16908060000160029054906101000a900460ff16905083565b6000806000905060011515836000015115151415610a6557611388810190505b60011515836020015115151415610a7e576103e8810190505b60011515836040015115151415610a9757612710810190505b80915050919050565b600080600080600092506001915060011515856000015115151415610ac6576001820191505b60011515856020015115151415610ade576001820191505b60011515856040015115151415610af6576002820191505b62015180600954600a5403811515610b0a57fe5b0490508160058202029250829350505050919050565b828054600181600116156101000203166002900490600052602060002090601f016020900481019282601f10610b6157805160ff1916838001178555610b8f565b82800160010185558215610b8f579182015b82811115610b8e578251825591602001919060010190610b73565b5b509050610b9c9190610ba0565b5090565b610bc291905b80821115610bbe576000816000905550600101610ba6565b5090565b905600a165627a7a72305820238442aa16d29f2249d6880054e555d7f78c870b8e7464896bcf03cfd82914a00029",
  "source": "pragma solidity ^0.4.0;\n\nimport \"./TrustedProviders.sol\";\n\n// template for primary traveler insurance contract\ncontract TravelInsurance {\n\n    // individual contract parameters\n    address public insured;\n    MedicalInformation emergencyInfo;\n    uint public premiumAmount;\n    PolicyDetails public insurancePolicy;\n    uint public maxPayout;\n    uint startDateTime;\n    uint endDateTime;\n\n    // owner is Insurance company\n    address owner;\n\n    // trusted providers registered in a separate contract\n    address trustedProviders;\n\n    // optional additional information\n    struct MedicalInformation{\n        string bloodType;\n        string allergies;\n        string conditions;\n        uint emergencyPhNum;\n        string homeCountry;\n    }\n\n    // policy parameters\n    struct PolicyDetails{\n        bool erVisitCoverage;\n        bool prescriptionCoverage;\n        bool surgeryCoverage;\n    }\n\n    // event recording for new contract\n    event contractProposed(\n        address indexed _insured,\n        PolicyDetails indexed _proposedPolicy,\n        uint _premiumValue\n        );\n\n    // event recording for validated contract\n    event contractValidated(\n        address indexed _insurer,\n        PolicyDetails indexed _validatedPolicy,\n        uint _coverageValue\n        );\n\n    // event recording for processed claim\n    event claimProcessed(\n        address indexed _provider,\n        PolicyDetails indexed _validatedPolicy,\n        uint _amountDisbursed\n        );\n\n    // initial constructor called by insurance company\n    constructor(address _trustedProviderContract) public {\n        owner = msg.sender;\n\n        // set trusted contract\n        trustedProviders = _trustedProviderContract;\n\n        // set insurance parameters (defaults to no coverage)\n        insurancePolicy = PolicyDetails(false, false, false);\n    }\n\n    // function for policy holder to set the travel policy they want and transfer premium\n    function selectNewPolicy(uint _startDateTime, uint _endDateTime, bool _erVisitCoverage, bool _prescriptionCoverage, bool _surgeryCoverage) public payable {\n        insured = msg.sender;\n        startDateTime = _startDateTime;\n        endDateTime = _endDateTime;\n        insurancePolicy.erVisitCoverage = _erVisitCoverage;\n        insurancePolicy.prescriptionCoverage = _prescriptionCoverage;\n        insurancePolicy.surgeryCoverage = _surgeryCoverage;\n        premiumAmount = calcPolicyPremium(insurancePolicy);\n\n        // require that funds send match required premium\n        require(msg.value >= calcPolicyPremium(insurancePolicy));\n\n        // log details of proposed contract\n        emit contractProposed(msg.sender, insurancePolicy, msg.value);\n    }\n\n    // function for policy holder to add emergency info that can be accessed by hospital\n    function provideEmergencyInfo(string _bloodType, string _allergies, string _conditions, uint _emergencyPhNum, string _homeCountry) public {\n        require(msg.sender == insured);\n        emergencyInfo.bloodType = _bloodType;\n        emergencyInfo.allergies = _allergies;\n        emergencyInfo.conditions = _conditions;\n        emergencyInfo.emergencyPhNum = _emergencyPhNum;\n        emergencyInfo.homeCountry = _homeCountry;\n    }\n\n    // function for insurance company to validate policy and transfer payout funds\n    function validate() public payable {\n        // require that validator is insurance company and that sufficient funds are available to cover payout\n        require(msg.sender == owner);\n        require(msg.value == calcPolicyPayout(insurancePolicy));\n\n        // log details of validated contract\n        emit contractValidated(msg.sender, insurancePolicy, msg.value);\n        maxPayout = calcPolicyPayout(insurancePolicy);\n    }\n\n    // function for medical provider to claim payment; must be called via TrustedProviders contract\n    function claimFunds(uint _claimAmount, address _providerAddress) public payable {\n        require(msg.sender == trustedProviders);\n        if(_claimAmount < maxPayout){\n            if (now >= startDateTime && now <= endDateTime){\n                _providerAddress.transfer(_claimAmount);\n                emit claimProcessed(_providerAddress, insurancePolicy, _claimAmount);\n            }\n        }\n    }\n\n    // function to calculate insurance premium based on selected insurance type parameters\n    function calcPolicyPremium(PolicyDetails _insurancePolicy) internal view returns (uint){\n\n        // premium calculated as $5 per day * trip duration * a multiplier that\n        // depends on the type of insurance purchased (I just made this up)\n\n        // set initial premium to 0\n        uint premium = 0;\n        uint multiplier = 1;\n\n        // increment for each type of insurance selected\n        if(_insurancePolicy.erVisitCoverage == true){\n            multiplier += 1;\n        }\n\n        if(_insurancePolicy.prescriptionCoverage == true){\n            multiplier += 1;\n        }\n\n        if(_insurancePolicy.surgeryCoverage == true){\n            multiplier += 2;\n        }\n\n        // multiply daily rate by multiplier\n        uint policyDuration = (endDateTime - startDateTime) / (60*60*24); // convert epoch time in seconds to days\n        premium = (policyDuration * 5) * multiplier;\n\n        return premium;\n    }\n\n    // function used to calculate maximum payout based on selected insurance policy parameters\n    function calcPolicyPayout(PolicyDetails _insurancePolicy) internal pure returns (uint){\n        uint payout = 0;\n\n        if(_insurancePolicy.erVisitCoverage == true){\n            payout += 5000;\n        }\n\n        if(_insurancePolicy.prescriptionCoverage == true){\n            payout += 1000;\n        }\n\n        if(_insurancePolicy.surgeryCoverage == true){\n            payout += 10000;\n        }\n\n        return payout;\n    }\n}\n\n",
  "sourcePath": "/Users/rwidjaya/Documents/BLOCKCHAIN/project/webthereum/truffle/contracts/TravelInsurance.sol",
  "compiler": {
    "name": "solc",
    "version": "0.4.24+commit.e67f0147.Emscripten.clang"
  },
  "schemaVersion": "2.0.1",
  "updatedAt": "2018-08-15T07:38:58.270Z"
}