{
  "contractName": "TrustedProviders",
  "abi": [
    {
      "constant": true,
      "inputs": [
        {
          "name": "",
          "type": "address"
        }
      ],
      "name": "trustedProviders",
      "outputs": [
        {
          "name": "",
          "type": "string"
        }
      ],
      "payable": false,
      "stateMutability": "view",
      "type": "function"
    },
    {
      "inputs": [],
      "payable": false,
      "stateMutability": "nonpayable",
      "type": "constructor"
    },
    {
      "constant": false,
      "inputs": [
        {
          "name": "_providerAddress",
          "type": "address"
        },
        {
          "name": "_providerName",
          "type": "string"
        }
      ],
      "name": "addTrustedProvider",
      "outputs": [],
      "payable": false,
      "stateMutability": "nonpayable",
      "type": "function"
    },
    {
      "constant": false,
      "inputs": [
        {
          "name": "_providerAddress",
          "type": "address"
        }
      ],
      "name": "removeTrustedProvider",
      "outputs": [],
      "payable": false,
      "stateMutability": "nonpayable",
      "type": "function"
    },
    {
      "constant": false,
      "inputs": [
        {
          "name": "_claimContract",
          "type": "address"
        },
        {
          "name": "_claimAmount",
          "type": "uint256"
        }
      ],
      "name": "fileClaim",
      "outputs": [],
      "payable": false,
      "stateMutability": "nonpayable",
      "type": "function"
    }
  ],
  "bytecode": "0x608060405234801561001057600080fd5b5033600160006101000a81548173ffffffffffffffffffffffffffffffffffffffff021916908373ffffffffffffffffffffffffffffffffffffffff16021790555061070e806100616000396000f300608060405260043610610062576000357c0100000000000000000000000000000000000000000000000000000000900463ffffffff16806313fe4bc614610067578063257cd78c146100f05780637a071a751461013d5780639b198b20146101f9575b600080fd5b34801561007357600080fd5b506100ee600480360381019080803573ffffffffffffffffffffffffffffffffffffffff169060200190929190803590602001908201803590602001908080601f016020809104026020016040519081016040528093929190818152602001838380828437820191505050505050919291929050505061023c565b005b3480156100fc57600080fd5b5061013b600480360381019080803573ffffffffffffffffffffffffffffffffffffffff169060200190929190803590602001909291905050506102ef565b005b34801561014957600080fd5b5061017e600480360381019080803573ffffffffffffffffffffffffffffffffffffffff16906020019092919050505061049c565b6040518080602001828103825283818151815260200191508051906020019080838360005b838110156101be5780820151818401526020810190506101a3565b50505050905090810190601f1680156101eb5780820380516001836020036101000a031916815260200191505b509250505060405180910390f35b34801561020557600080fd5b5061023a600480360381019080803573ffffffffffffffffffffffffffffffffffffffff16906020019092919050505061054c565b005b600160009054906101000a900473ffffffffffffffffffffffffffffffffffffffff1673ffffffffffffffffffffffffffffffffffffffff163373ffffffffffffffffffffffffffffffffffffffff1614151561029857600080fd5b806000808473ffffffffffffffffffffffffffffffffffffffff1673ffffffffffffffffffffffffffffffffffffffff16815260200190815260200160002090805190602001906102ea9291906105f5565b505050565b600060608391506000803373ffffffffffffffffffffffffffffffffffffffff1673ffffffffffffffffffffffffffffffffffffffff1681526020019081526020016000208054600181600116156101000203166002900480601f0160208091040260200160405190810160405280929190818152602001828054600181600116156101000203166002900480156103c85780601f1061039d576101008083540402835291602001916103c8565b820191906000526020600020905b8154815290600101906020018083116103ab57829003601f168201915b5050505050905060008151141515610496578173ffffffffffffffffffffffffffffffffffffffff1663390d685584336040518363ffffffff167c0100000000000000000000000000000000000000000000000000000000028152600401808381526020018273ffffffffffffffffffffffffffffffffffffffff1673ffffffffffffffffffffffffffffffffffffffff16815260200192505050600060405180830381600087803b15801561047d57600080fd5b505af1158015610491573d6000803e3d6000fd5b505050505b50505050565b60006020528060005260406000206000915090508054600181600116156101000203166002900480601f0160208091040260200160405190810160405280929190818152602001828054600181600116156101000203166002900480156105445780601f1061051957610100808354040283529160200191610544565b820191906000526020600020905b81548152906001019060200180831161052757829003601f168201915b505050505081565b600160009054906101000a900473ffffffffffffffffffffffffffffffffffffffff1673ffffffffffffffffffffffffffffffffffffffff163373ffffffffffffffffffffffffffffffffffffffff161415156105a857600080fd5b6000808273ffffffffffffffffffffffffffffffffffffffff1673ffffffffffffffffffffffffffffffffffffffff16815260200190815260200160002060006105f29190610675565b50565b828054600181600116156101000203166002900490600052602060002090601f016020900481019282601f1061063657805160ff1916838001178555610664565b82800160010185558215610664579182015b82811115610663578251825591602001919060010190610648565b5b50905061067191906106bd565b5090565b50805460018160011615610100020316600290046000825580601f1061069b57506106ba565b601f0160209004906000526020600020908101906106b991906106bd565b5b50565b6106df91905b808211156106db5760008160009055506001016106c3565b5090565b905600a165627a7a72305820d0c66efab1c011c21d3ce138cf2e1534c1410232db19451b06f9a0f72ef548280029",
  "source": "pragma solidity ^0.4.0;\n\nimport \"./TravelInsurance.sol\";\n\ncontract TrustedProviders {\n\n    mapping (address => string) public trustedProviders;\n    address owner;\n\n    constructor() public{\n        owner = msg.sender;\n    }\n\n    \n    function addTrustedProvider(address _providerAddress, string _providerName) public {\n        require(msg.sender == owner);\n        trustedProviders[_providerAddress] = _providerName;\n    }\n\n    function removeTrustedProvider(address _providerAddress) public {\n        require(msg.sender == owner);\n        delete trustedProviders[_providerAddress];\n    }\n\n    function fileClaim(address _claimContract, uint _claimAmount) public {\n        TravelInsurance claimContract = TravelInsurance(_claimContract);\n        bytes memory testEmpty = bytes(trustedProviders[msg.sender]);\n        if(testEmpty.length != 0){\n            claimContract.claimFunds(_claimAmount, msg.sender);\n        }\n    }\n}\n",
  "sourcePath": "/Users/rwidjaya/Documents/BLOCKCHAIN/project/webthereum/truffle/contracts/TrustedProviders.sol",
  "compiler": {
    "name": "solc",
    "version": "0.4.24+commit.e67f0147.Emscripten.clang"
  },
  "schemaVersion": "2.0.1",
  "updatedAt": "2018-08-15T07:38:58.249Z"
}